                                      1 ;--------------------------------------------------------
                                      2 ; File Created by SDCC : free open source ANSI-C Compiler
                                      3 ; Version 3.8.0 #10562 (Linux)
                                      4 ;--------------------------------------------------------
                                      5 	.module music
                                      6 	.optsdcc -mmcs51 --model-small
                                      7 	
                                      8 ;--------------------------------------------------------
                                      9 ; Public variables in this module
                                     10 ;--------------------------------------------------------
                                     11 	.globl _wing_PARM_2
                                     12 	.globl _main
                                     13 	.globl _wing
                                     14 	.globl _TF2
                                     15 	.globl _EXF2
                                     16 	.globl _RCLK
                                     17 	.globl _TCLK
                                     18 	.globl _EXEN2
                                     19 	.globl _TR2
                                     20 	.globl _C_T2
                                     21 	.globl _CP_RL2
                                     22 	.globl _T2CON_7
                                     23 	.globl _T2CON_6
                                     24 	.globl _T2CON_5
                                     25 	.globl _T2CON_4
                                     26 	.globl _T2CON_3
                                     27 	.globl _T2CON_2
                                     28 	.globl _T2CON_1
                                     29 	.globl _T2CON_0
                                     30 	.globl _PT2
                                     31 	.globl _ET2
                                     32 	.globl _CY
                                     33 	.globl _AC
                                     34 	.globl _F0
                                     35 	.globl _RS1
                                     36 	.globl _RS0
                                     37 	.globl _OV
                                     38 	.globl _F1
                                     39 	.globl _P
                                     40 	.globl _PS
                                     41 	.globl _PT1
                                     42 	.globl _PX1
                                     43 	.globl _PT0
                                     44 	.globl _PX0
                                     45 	.globl _RD
                                     46 	.globl _WR
                                     47 	.globl _T1
                                     48 	.globl _T0
                                     49 	.globl _INT1
                                     50 	.globl _INT0
                                     51 	.globl _TXD
                                     52 	.globl _RXD
                                     53 	.globl _P3_7
                                     54 	.globl _P3_6
                                     55 	.globl _P3_5
                                     56 	.globl _P3_4
                                     57 	.globl _P3_3
                                     58 	.globl _P3_2
                                     59 	.globl _P3_1
                                     60 	.globl _P3_0
                                     61 	.globl _EA
                                     62 	.globl _ES
                                     63 	.globl _ET1
                                     64 	.globl _EX1
                                     65 	.globl _ET0
                                     66 	.globl _EX0
                                     67 	.globl _P2_7
                                     68 	.globl _P2_6
                                     69 	.globl _P2_5
                                     70 	.globl _P2_4
                                     71 	.globl _P2_3
                                     72 	.globl _P2_2
                                     73 	.globl _P2_1
                                     74 	.globl _P2_0
                                     75 	.globl _SM0
                                     76 	.globl _SM1
                                     77 	.globl _SM2
                                     78 	.globl _REN
                                     79 	.globl _TB8
                                     80 	.globl _RB8
                                     81 	.globl _TI
                                     82 	.globl _RI
                                     83 	.globl _P1_7
                                     84 	.globl _P1_6
                                     85 	.globl _P1_5
                                     86 	.globl _P1_4
                                     87 	.globl _P1_3
                                     88 	.globl _P1_2
                                     89 	.globl _P1_1
                                     90 	.globl _P1_0
                                     91 	.globl _TF1
                                     92 	.globl _TR1
                                     93 	.globl _TF0
                                     94 	.globl _TR0
                                     95 	.globl _IE1
                                     96 	.globl _IT1
                                     97 	.globl _IE0
                                     98 	.globl _IT0
                                     99 	.globl _P0_7
                                    100 	.globl _P0_6
                                    101 	.globl _P0_5
                                    102 	.globl _P0_4
                                    103 	.globl _P0_3
                                    104 	.globl _P0_2
                                    105 	.globl _P0_1
                                    106 	.globl _P0_0
                                    107 	.globl _TH2
                                    108 	.globl _TL2
                                    109 	.globl _RCAP2H
                                    110 	.globl _RCAP2L
                                    111 	.globl _T2CON
                                    112 	.globl _B
                                    113 	.globl _ACC
                                    114 	.globl _PSW
                                    115 	.globl _IP
                                    116 	.globl _P3
                                    117 	.globl _IE
                                    118 	.globl _P2
                                    119 	.globl _SBUF
                                    120 	.globl _SCON
                                    121 	.globl _P1
                                    122 	.globl _TH1
                                    123 	.globl _TH0
                                    124 	.globl _TL1
                                    125 	.globl _TL0
                                    126 	.globl _TMOD
                                    127 	.globl _TCON
                                    128 	.globl _PCON
                                    129 	.globl _DPH
                                    130 	.globl _DPL
                                    131 	.globl _SP
                                    132 	.globl _P0
                                    133 ;--------------------------------------------------------
                                    134 ; special function registers
                                    135 ;--------------------------------------------------------
                                    136 	.area RSEG    (ABS,DATA)
      000000                        137 	.org 0x0000
                           000080   138 _P0	=	0x0080
                           000081   139 _SP	=	0x0081
                           000082   140 _DPL	=	0x0082
                           000083   141 _DPH	=	0x0083
                           000087   142 _PCON	=	0x0087
                           000088   143 _TCON	=	0x0088
                           000089   144 _TMOD	=	0x0089
                           00008A   145 _TL0	=	0x008a
                           00008B   146 _TL1	=	0x008b
                           00008C   147 _TH0	=	0x008c
                           00008D   148 _TH1	=	0x008d
                           000090   149 _P1	=	0x0090
                           000098   150 _SCON	=	0x0098
                           000099   151 _SBUF	=	0x0099
                           0000A0   152 _P2	=	0x00a0
                           0000A8   153 _IE	=	0x00a8
                           0000B0   154 _P3	=	0x00b0
                           0000B8   155 _IP	=	0x00b8
                           0000D0   156 _PSW	=	0x00d0
                           0000E0   157 _ACC	=	0x00e0
                           0000F0   158 _B	=	0x00f0
                           0000C8   159 _T2CON	=	0x00c8
                           0000CA   160 _RCAP2L	=	0x00ca
                           0000CB   161 _RCAP2H	=	0x00cb
                           0000CC   162 _TL2	=	0x00cc
                           0000CD   163 _TH2	=	0x00cd
                                    164 ;--------------------------------------------------------
                                    165 ; special function bits
                                    166 ;--------------------------------------------------------
                                    167 	.area RSEG    (ABS,DATA)
      000000                        168 	.org 0x0000
                           000080   169 _P0_0	=	0x0080
                           000081   170 _P0_1	=	0x0081
                           000082   171 _P0_2	=	0x0082
                           000083   172 _P0_3	=	0x0083
                           000084   173 _P0_4	=	0x0084
                           000085   174 _P0_5	=	0x0085
                           000086   175 _P0_6	=	0x0086
                           000087   176 _P0_7	=	0x0087
                           000088   177 _IT0	=	0x0088
                           000089   178 _IE0	=	0x0089
                           00008A   179 _IT1	=	0x008a
                           00008B   180 _IE1	=	0x008b
                           00008C   181 _TR0	=	0x008c
                           00008D   182 _TF0	=	0x008d
                           00008E   183 _TR1	=	0x008e
                           00008F   184 _TF1	=	0x008f
                           000090   185 _P1_0	=	0x0090
                           000091   186 _P1_1	=	0x0091
                           000092   187 _P1_2	=	0x0092
                           000093   188 _P1_3	=	0x0093
                           000094   189 _P1_4	=	0x0094
                           000095   190 _P1_5	=	0x0095
                           000096   191 _P1_6	=	0x0096
                           000097   192 _P1_7	=	0x0097
                           000098   193 _RI	=	0x0098
                           000099   194 _TI	=	0x0099
                           00009A   195 _RB8	=	0x009a
                           00009B   196 _TB8	=	0x009b
                           00009C   197 _REN	=	0x009c
                           00009D   198 _SM2	=	0x009d
                           00009E   199 _SM1	=	0x009e
                           00009F   200 _SM0	=	0x009f
                           0000A0   201 _P2_0	=	0x00a0
                           0000A1   202 _P2_1	=	0x00a1
                           0000A2   203 _P2_2	=	0x00a2
                           0000A3   204 _P2_3	=	0x00a3
                           0000A4   205 _P2_4	=	0x00a4
                           0000A5   206 _P2_5	=	0x00a5
                           0000A6   207 _P2_6	=	0x00a6
                           0000A7   208 _P2_7	=	0x00a7
                           0000A8   209 _EX0	=	0x00a8
                           0000A9   210 _ET0	=	0x00a9
                           0000AA   211 _EX1	=	0x00aa
                           0000AB   212 _ET1	=	0x00ab
                           0000AC   213 _ES	=	0x00ac
                           0000AF   214 _EA	=	0x00af
                           0000B0   215 _P3_0	=	0x00b0
                           0000B1   216 _P3_1	=	0x00b1
                           0000B2   217 _P3_2	=	0x00b2
                           0000B3   218 _P3_3	=	0x00b3
                           0000B4   219 _P3_4	=	0x00b4
                           0000B5   220 _P3_5	=	0x00b5
                           0000B6   221 _P3_6	=	0x00b6
                           0000B7   222 _P3_7	=	0x00b7
                           0000B0   223 _RXD	=	0x00b0
                           0000B1   224 _TXD	=	0x00b1
                           0000B2   225 _INT0	=	0x00b2
                           0000B3   226 _INT1	=	0x00b3
                           0000B4   227 _T0	=	0x00b4
                           0000B5   228 _T1	=	0x00b5
                           0000B6   229 _WR	=	0x00b6
                           0000B7   230 _RD	=	0x00b7
                           0000B8   231 _PX0	=	0x00b8
                           0000B9   232 _PT0	=	0x00b9
                           0000BA   233 _PX1	=	0x00ba
                           0000BB   234 _PT1	=	0x00bb
                           0000BC   235 _PS	=	0x00bc
                           0000D0   236 _P	=	0x00d0
                           0000D1   237 _F1	=	0x00d1
                           0000D2   238 _OV	=	0x00d2
                           0000D3   239 _RS0	=	0x00d3
                           0000D4   240 _RS1	=	0x00d4
                           0000D5   241 _F0	=	0x00d5
                           0000D6   242 _AC	=	0x00d6
                           0000D7   243 _CY	=	0x00d7
                           0000AD   244 _ET2	=	0x00ad
                           0000BD   245 _PT2	=	0x00bd
                           0000C8   246 _T2CON_0	=	0x00c8
                           0000C9   247 _T2CON_1	=	0x00c9
                           0000CA   248 _T2CON_2	=	0x00ca
                           0000CB   249 _T2CON_3	=	0x00cb
                           0000CC   250 _T2CON_4	=	0x00cc
                           0000CD   251 _T2CON_5	=	0x00cd
                           0000CE   252 _T2CON_6	=	0x00ce
                           0000CF   253 _T2CON_7	=	0x00cf
                           0000C8   254 _CP_RL2	=	0x00c8
                           0000C9   255 _C_T2	=	0x00c9
                           0000CA   256 _TR2	=	0x00ca
                           0000CB   257 _EXEN2	=	0x00cb
                           0000CC   258 _TCLK	=	0x00cc
                           0000CD   259 _RCLK	=	0x00cd
                           0000CE   260 _EXF2	=	0x00ce
                           0000CF   261 _TF2	=	0x00cf
                                    262 ;--------------------------------------------------------
                                    263 ; overlayable register banks
                                    264 ;--------------------------------------------------------
                                    265 	.area REG_BANK_0	(REL,OVR,DATA)
      000000                        266 	.ds 8
                                    267 ;--------------------------------------------------------
                                    268 ; internal ram data
                                    269 ;--------------------------------------------------------
                                    270 	.area DSEG    (DATA)
                                    271 ;--------------------------------------------------------
                                    272 ; overlayable items in internal ram 
                                    273 ;--------------------------------------------------------
                                    274 	.area	OSEG    (OVR,DATA)
      000008                        275 _wing_PARM_2:
      000008                        276 	.ds 2
                                    277 ;--------------------------------------------------------
                                    278 ; Stack segment in internal ram 
                                    279 ;--------------------------------------------------------
                                    280 	.area	SSEG
      00000A                        281 __start__stack:
      00000A                        282 	.ds	1
                                    283 
                                    284 ;--------------------------------------------------------
                                    285 ; indirectly addressable internal ram data
                                    286 ;--------------------------------------------------------
                                    287 	.area ISEG    (DATA)
                                    288 ;--------------------------------------------------------
                                    289 ; absolute internal ram data
                                    290 ;--------------------------------------------------------
                                    291 	.area IABS    (ABS,DATA)
                                    292 	.area IABS    (ABS,DATA)
                                    293 ;--------------------------------------------------------
                                    294 ; bit data
                                    295 ;--------------------------------------------------------
                                    296 	.area BSEG    (BIT)
                                    297 ;--------------------------------------------------------
                                    298 ; paged external ram data
                                    299 ;--------------------------------------------------------
                                    300 	.area PSEG    (PAG,XDATA)
                                    301 ;--------------------------------------------------------
                                    302 ; external ram data
                                    303 ;--------------------------------------------------------
                                    304 	.area XSEG    (XDATA)
                                    305 ;--------------------------------------------------------
                                    306 ; absolute external ram data
                                    307 ;--------------------------------------------------------
                                    308 	.area XABS    (ABS,XDATA)
                                    309 ;--------------------------------------------------------
                                    310 ; external initialized ram data
                                    311 ;--------------------------------------------------------
                                    312 	.area XISEG   (XDATA)
                                    313 	.area HOME    (CODE)
                                    314 	.area GSINIT0 (CODE)
                                    315 	.area GSINIT1 (CODE)
                                    316 	.area GSINIT2 (CODE)
                                    317 	.area GSINIT3 (CODE)
                                    318 	.area GSINIT4 (CODE)
                                    319 	.area GSINIT5 (CODE)
                                    320 	.area GSINIT  (CODE)
                                    321 	.area GSFINAL (CODE)
                                    322 	.area CSEG    (CODE)
                                    323 ;--------------------------------------------------------
                                    324 ; interrupt vector 
                                    325 ;--------------------------------------------------------
                                    326 	.area HOME    (CODE)
      000000                        327 __interrupt_vect:
      000000 02 00 06         [24]  328 	ljmp	__sdcc_gsinit_startup
                                    329 ;--------------------------------------------------------
                                    330 ; global & static initialisations
                                    331 ;--------------------------------------------------------
                                    332 	.area HOME    (CODE)
                                    333 	.area GSINIT  (CODE)
                                    334 	.area GSFINAL (CODE)
                                    335 	.area GSINIT  (CODE)
                                    336 	.globl __sdcc_gsinit_startup
                                    337 	.globl __sdcc_program_startup
                                    338 	.globl __start__stack
                                    339 	.globl __mcs51_genXINIT
                                    340 	.globl __mcs51_genXRAMCLEAR
                                    341 	.globl __mcs51_genRAMCLEAR
                                    342 	.area GSFINAL (CODE)
      00005F 02 00 03         [24]  343 	ljmp	__sdcc_program_startup
                                    344 ;--------------------------------------------------------
                                    345 ; Home
                                    346 ;--------------------------------------------------------
                                    347 	.area HOME    (CODE)
                                    348 	.area HOME    (CODE)
      000003                        349 __sdcc_program_startup:
      000003 02 00 8C         [24]  350 	ljmp	_main
                                    351 ;	return from main will return to caller
                                    352 ;--------------------------------------------------------
                                    353 ; code
                                    354 ;--------------------------------------------------------
                                    355 	.area CSEG    (CODE)
                                    356 ;------------------------------------------------------------
                                    357 ;Allocation info for local variables in function 'wing'
                                    358 ;------------------------------------------------------------
                                    359 ;timeout                   Allocated with name '_wing_PARM_2'
                                    360 ;times                     Allocated to registers r6 r7 
                                    361 ;i                         Allocated to registers r4 r5 
                                    362 ;tio                       Allocated to registers 
                                    363 ;------------------------------------------------------------
                                    364 ;	music.c:14: void wing(unsigned int times,u16 timeout ){
                                    365 ;	-----------------------------------------
                                    366 ;	 function wing
                                    367 ;	-----------------------------------------
      000062                        368 _wing:
                           000007   369 	ar7 = 0x07
                           000006   370 	ar6 = 0x06
                           000005   371 	ar5 = 0x05
                           000004   372 	ar4 = 0x04
                           000003   373 	ar3 = 0x03
                           000002   374 	ar2 = 0x02
                           000001   375 	ar1 = 0x01
                           000000   376 	ar0 = 0x00
      000062 AE 82            [24]  377 	mov	r6,dpl
      000064 AF 83            [24]  378 	mov	r7,dph
                                    379 ;	music.c:16: for(i=0;i<times;i++){
      000066 7C 00            [12]  380 	mov	r4,#0x00
      000068 7D 00            [12]  381 	mov	r5,#0x00
      00006A                        382 00106$:
      00006A C3               [12]  383 	clr	c
      00006B EC               [12]  384 	mov	a,r4
      00006C 9E               [12]  385 	subb	a,r6
      00006D ED               [12]  386 	mov	a,r5
      00006E 9F               [12]  387 	subb	a,r7
      00006F 50 1A            [24]  388 	jnc	00108$
                                    389 ;	music.c:18: beep=!beep;
      000071 B2 95            [12]  390 	cpl	_P1_5
                                    391 ;	music.c:19: tio=timeout;
      000073 AA 08            [24]  392 	mov	r2,_wing_PARM_2
      000075 AB 09            [24]  393 	mov	r3,(_wing_PARM_2 + 1)
                                    394 ;	music.c:20: while(tio--);
      000077                        395 00101$:
      000077 8A 00            [24]  396 	mov	ar0,r2
      000079 8B 01            [24]  397 	mov	ar1,r3
      00007B 1A               [12]  398 	dec	r2
      00007C BA FF 01         [24]  399 	cjne	r2,#0xff,00129$
      00007F 1B               [12]  400 	dec	r3
      000080                        401 00129$:
      000080 E8               [12]  402 	mov	a,r0
      000081 49               [12]  403 	orl	a,r1
      000082 70 F3            [24]  404 	jnz	00101$
                                    405 ;	music.c:16: for(i=0;i<times;i++){
      000084 0C               [12]  406 	inc	r4
      000085 BC 00 E2         [24]  407 	cjne	r4,#0x00,00106$
      000088 0D               [12]  408 	inc	r5
      000089 80 DF            [24]  409 	sjmp	00106$
      00008B                        410 00108$:
                                    411 ;	music.c:22: }
      00008B 22               [24]  412 	ret
                                    413 ;------------------------------------------------------------
                                    414 ;Allocation info for local variables in function 'main'
                                    415 ;------------------------------------------------------------
                                    416 ;	music.c:24: void main(){
                                    417 ;	-----------------------------------------
                                    418 ;	 function main
                                    419 ;	-----------------------------------------
      00008C                        420 _main:
                                    421 ;	music.c:40: wing(440,125); //撑
      00008C 75 08 7D         [24]  422 	mov	_wing_PARM_2,#0x7d
      00008F 75 09 00         [24]  423 	mov	(_wing_PARM_2 + 1),#0x00
      000092 90 01 B8         [24]  424 	mov	dptr,#0x01b8
      000095 12 00 62         [24]  425 	lcall	_wing
                                    426 ;	music.c:41: wing(392,140); //伞
      000098 75 08 8C         [24]  427 	mov	_wing_PARM_2,#0x8c
      00009B 75 09 00         [24]  428 	mov	(_wing_PARM_2 + 1),#0x00
      00009E 90 01 88         [24]  429 	mov	dptr,#0x0188
      0000A1 12 00 62         [24]  430 	lcall	_wing
                                    431 ;	music.c:42: wing(392,140); //接
      0000A4 75 08 8C         [24]  432 	mov	_wing_PARM_2,#0x8c
      0000A7 75 09 00         [24]  433 	mov	(_wing_PARM_2 + 1),#0x00
      0000AA 90 01 88         [24]  434 	mov	dptr,#0x0188
      0000AD 12 00 62         [24]  435 	lcall	_wing
                                    436 ;	music.c:43: wing(330,167); //落
      0000B0 75 08 A7         [24]  437 	mov	_wing_PARM_2,#0xa7
      0000B3 75 09 00         [24]  438 	mov	(_wing_PARM_2 + 1),#0x00
      0000B6 90 01 4A         [24]  439 	mov	dptr,#0x014a
      0000B9 12 00 62         [24]  440 	lcall	_wing
                                    441 ;	music.c:44: wing(784,140); //花
      0000BC 75 08 8C         [24]  442 	mov	_wing_PARM_2,#0x8c
      0000BF 75 09 00         [24]  443 	mov	(_wing_PARM_2 + 1),#0x00
      0000C2 90 03 10         [24]  444 	mov	dptr,#0x0310
      0000C5 12 00 62         [24]  445 	lcall	_wing
                                    446 ;	music.c:46: wing(330,167); //看
      0000C8 75 08 A7         [24]  447 	mov	_wing_PARM_2,#0xa7
      0000CB 75 09 00         [24]  448 	mov	(_wing_PARM_2 + 1),#0x00
      0000CE 90 01 4A         [24]  449 	mov	dptr,#0x014a
      0000D1 12 00 62         [24]  450 	lcall	_wing
                                    451 ;	music.c:47: wing(392,140); //那
      0000D4 75 08 8C         [24]  452 	mov	_wing_PARM_2,#0x8c
      0000D7 75 09 00         [24]  453 	mov	(_wing_PARM_2 + 1),#0x00
      0000DA 90 01 88         [24]  454 	mov	dptr,#0x0188
      0000DD 12 00 62         [24]  455 	lcall	_wing
                                    456 ;	music.c:48: wing(440,125); //西
      0000E0 75 08 7D         [24]  457 	mov	_wing_PARM_2,#0x7d
      0000E3 75 09 00         [24]  458 	mov	(_wing_PARM_2 + 1),#0x00
      0000E6 90 01 B8         [24]  459 	mov	dptr,#0x01b8
      0000E9 12 00 62         [24]  460 	lcall	_wing
                                    461 ;	music.c:49: wing(494,111); //风
      0000EC 75 08 6F         [24]  462 	mov	_wing_PARM_2,#0x6f
      0000EF 75 09 00         [24]  463 	mov	(_wing_PARM_2 + 1),#0x00
      0000F2 90 01 EE         [24]  464 	mov	dptr,#0x01ee
      0000F5 12 00 62         [24]  465 	lcall	_wing
                                    466 ;	music.c:50: wing(440,125); //骑
      0000F8 75 08 7D         [24]  467 	mov	_wing_PARM_2,#0x7d
      0000FB 75 09 00         [24]  468 	mov	(_wing_PARM_2 + 1),#0x00
      0000FE 90 01 B8         [24]  469 	mov	dptr,#0x01b8
      000101 12 00 62         [24]  470 	lcall	_wing
                                    471 ;	music.c:51: wing(494,111); //瘦
      000104 75 08 6F         [24]  472 	mov	_wing_PARM_2,#0x6f
      000107 75 09 00         [24]  473 	mov	(_wing_PARM_2 + 1),#0x00
      00010A 90 01 EE         [24]  474 	mov	dptr,#0x01ee
      00010D 12 00 62         [24]  475 	lcall	_wing
                                    476 ;	music.c:52: wing(660,167); //马
      000110 75 08 A7         [24]  477 	mov	_wing_PARM_2,#0xa7
      000113 75 09 00         [24]  478 	mov	(_wing_PARM_2 + 1),#0x00
      000116 90 02 94         [24]  479 	mov	dptr,#0x0294
      000119 12 00 62         [24]  480 	lcall	_wing
                                    481 ;	music.c:54: wing(330,167); //谁
      00011C 75 08 A7         [24]  482 	mov	_wing_PARM_2,#0xa7
      00011F 75 09 00         [24]  483 	mov	(_wing_PARM_2 + 1),#0x00
      000122 90 01 4A         [24]  484 	mov	dptr,#0x014a
      000125 12 00 62         [24]  485 	lcall	_wing
                                    486 ;	music.c:55: wing(294,187); //能
      000128 75 08 BB         [24]  487 	mov	_wing_PARM_2,#0xbb
      00012B 75 09 00         [24]  488 	mov	(_wing_PARM_2 + 1),#0x00
      00012E 90 01 26         [24]  489 	mov	dptr,#0x0126
      000131 12 00 62         [24]  490 	lcall	_wing
                                    491 ;	music.c:56: wing(262,210); //为
      000134 75 08 D2         [24]  492 	mov	_wing_PARM_2,#0xd2
      000137 75 09 00         [24]  493 	mov	(_wing_PARM_2 + 1),#0x00
      00013A 90 01 06         [24]  494 	mov	dptr,#0x0106
      00013D 12 00 62         [24]  495 	lcall	_wing
                                    496 ;	music.c:57: wing(220,250); //我
      000140 75 08 FA         [24]  497 	mov	_wing_PARM_2,#0xfa
      000143 75 09 00         [24]  498 	mov	(_wing_PARM_2 + 1),#0x00
      000146 90 00 DC         [24]  499 	mov	dptr,#0x00dc
      000149 12 00 62         [24]  500 	lcall	_wing
                                    501 ;	music.c:58: wing(262,210); //一
      00014C 75 08 D2         [24]  502 	mov	_wing_PARM_2,#0xd2
      00014F 75 09 00         [24]  503 	mov	(_wing_PARM_2 + 1),#0x00
      000152 90 01 06         [24]  504 	mov	dptr,#0x0106
      000155 12 00 62         [24]  505 	lcall	_wing
                                    506 ;	music.c:59: wing(147,187); //眼
      000158 75 08 BB         [24]  507 	mov	_wing_PARM_2,#0xbb
      00015B 75 09 00         [24]  508 	mov	(_wing_PARM_2 + 1),#0x00
      00015E 90 00 93         [24]  509 	mov	dptr,#0x0093
      000161 12 00 62         [24]  510 	lcall	_wing
                                    511 ;	music.c:60: wing(136,210); //望
      000164 75 08 D2         [24]  512 	mov	_wing_PARM_2,#0xd2
      000167 75 09 00         [24]  513 	mov	(_wing_PARM_2 + 1),#0x00
      00016A 90 00 88         [24]  514 	mov	dptr,#0x0088
      00016D 12 00 62         [24]  515 	lcall	_wing
                                    516 ;	music.c:61: wing(330,167); //穿
      000170 75 08 A7         [24]  517 	mov	_wing_PARM_2,#0xa7
      000173 75 09 00         [24]  518 	mov	(_wing_PARM_2 + 1),#0x00
      000176 90 01 4A         [24]  519 	mov	dptr,#0x014a
      000179 12 00 62         [24]  520 	lcall	_wing
                                    521 ;	music.c:62: wing(392,140); //流
      00017C 75 08 8C         [24]  522 	mov	_wing_PARM_2,#0x8c
      00017F 75 09 00         [24]  523 	mov	(_wing_PARM_2 + 1),#0x00
      000182 90 01 88         [24]  524 	mov	dptr,#0x0188
      000185 12 00 62         [24]  525 	lcall	_wing
                                    526 ;	music.c:63: wing(784,140); //霞
      000188 75 08 8C         [24]  527 	mov	_wing_PARM_2,#0x8c
      00018B 75 09 00         [24]  528 	mov	(_wing_PARM_2 + 1),#0x00
      00018E 90 03 10         [24]  529 	mov	dptr,#0x0310
      000191 12 00 62         [24]  530 	lcall	_wing
                                    531 ;	music.c:65: wing(294,187); //公
      000194 75 08 BB         [24]  532 	mov	_wing_PARM_2,#0xbb
      000197 75 09 00         [24]  533 	mov	(_wing_PARM_2 + 1),#0x00
      00019A 90 01 26         [24]  534 	mov	dptr,#0x0126
      00019D 12 00 62         [24]  535 	lcall	_wing
                                    536 ;	music.c:66: wing(294,187); //子
      0001A0 75 08 BB         [24]  537 	mov	_wing_PARM_2,#0xbb
      0001A3 75 09 00         [24]  538 	mov	(_wing_PARM_2 + 1),#0x00
      0001A6 90 01 26         [24]  539 	mov	dptr,#0x0126
      0001A9 12 00 62         [24]  540 	lcall	_wing
                                    541 ;	music.c:67: wing(262,210); //是
      0001AC 75 08 D2         [24]  542 	mov	_wing_PARM_2,#0xd2
      0001AF 75 09 00         [24]  543 	mov	(_wing_PARM_2 + 1),#0x00
      0001B2 90 01 06         [24]  544 	mov	dptr,#0x0106
      0001B5 12 00 62         [24]  545 	lcall	_wing
                                    546 ;	music.c:68: wing(220,250); //你
      0001B8 75 08 FA         [24]  547 	mov	_wing_PARM_2,#0xfa
      0001BB 75 09 00         [24]  548 	mov	(_wing_PARM_2 + 1),#0x00
      0001BE 90 00 DC         [24]  549 	mov	dptr,#0x00dc
      0001C1 12 00 62         [24]  550 	lcall	_wing
                                    551 ;	music.c:69: wing(588,187); //吗
      0001C4 75 08 BB         [24]  552 	mov	_wing_PARM_2,#0xbb
      0001C7 75 09 00         [24]  553 	mov	(_wing_PARM_2 + 1),#0x00
      0001CA 90 02 4C         [24]  554 	mov	dptr,#0x024c
      0001CD 12 00 62         [24]  555 	lcall	_wing
                                    556 ;	music.c:71: wing(262,210); //前
      0001D0 75 08 D2         [24]  557 	mov	_wing_PARM_2,#0xd2
      0001D3 75 09 00         [24]  558 	mov	(_wing_PARM_2 + 1),#0x00
      0001D6 90 01 06         [24]  559 	mov	dptr,#0x0106
      0001D9 12 00 62         [24]  560 	lcall	_wing
                                    561 ;	music.c:72: wing(294,187); //面
      0001DC 75 08 BB         [24]  562 	mov	_wing_PARM_2,#0xbb
      0001DF 75 09 00         [24]  563 	mov	(_wing_PARM_2 + 1),#0x00
      0001E2 90 01 26         [24]  564 	mov	dptr,#0x0126
      0001E5 12 00 62         [24]  565 	lcall	_wing
                                    566 ;	music.c:73: wing(330,167); //深
      0001E8 75 08 A7         [24]  567 	mov	_wing_PARM_2,#0xa7
      0001EB 75 09 00         [24]  568 	mov	(_wing_PARM_2 + 1),#0x00
      0001EE 90 01 4A         [24]  569 	mov	dptr,#0x014a
      0001F1 12 00 62         [24]  570 	lcall	_wing
                                    571 ;	music.c:74: wing(294,187); //山
      0001F4 75 08 BB         [24]  572 	mov	_wing_PARM_2,#0xbb
      0001F7 75 09 00         [24]  573 	mov	(_wing_PARM_2 + 1),#0x00
      0001FA 90 01 26         [24]  574 	mov	dptr,#0x0126
      0001FD 12 00 62         [24]  575 	lcall	_wing
                                    576 ;	music.c:75: wing(330,167); //谁
      000200 75 08 A7         [24]  577 	mov	_wing_PARM_2,#0xa7
      000203 75 09 00         [24]  578 	mov	(_wing_PARM_2 + 1),#0x00
      000206 90 01 4A         [24]  579 	mov	dptr,#0x014a
      000209 12 00 62         [24]  580 	lcall	_wing
                                    581 ;	music.c:76: wing(392,140); //人
      00020C 75 08 8C         [24]  582 	mov	_wing_PARM_2,#0x8c
      00020F 75 09 00         [24]  583 	mov	(_wing_PARM_2 + 1),#0x00
      000212 90 01 88         [24]  584 	mov	dptr,#0x0188
      000215 12 00 62         [24]  585 	lcall	_wing
                                    586 ;	music.c:77: wing(784,140); //家
      000218 75 08 8C         [24]  587 	mov	_wing_PARM_2,#0x8c
      00021B 75 09 00         [24]  588 	mov	(_wing_PARM_2 + 1),#0x00
      00021E 90 03 10         [24]  589 	mov	dptr,#0x0310
      000221 12 00 62         [24]  590 	lcall	_wing
                                    591 ;	music.c:79: wing(330,167); //暮
      000224 75 08 A7         [24]  592 	mov	_wing_PARM_2,#0xa7
      000227 75 09 00         [24]  593 	mov	(_wing_PARM_2 + 1),#0x00
      00022A 90 01 4A         [24]  594 	mov	dptr,#0x014a
      00022D 12 00 62         [24]  595 	lcall	_wing
                                    596 ;	music.c:80: wing(392,140); //夜
      000230 75 08 8C         [24]  597 	mov	_wing_PARM_2,#0x8c
      000233 75 09 00         [24]  598 	mov	(_wing_PARM_2 + 1),#0x00
      000236 90 01 88         [24]  599 	mov	dptr,#0x0188
      000239 12 00 62         [24]  600 	lcall	_wing
                                    601 ;	music.c:81: wing(440,125); //抚
      00023C 75 08 7D         [24]  602 	mov	_wing_PARM_2,#0x7d
      00023F 75 09 00         [24]  603 	mov	(_wing_PARM_2 + 1),#0x00
      000242 90 01 B8         [24]  604 	mov	dptr,#0x01b8
      000245 12 00 62         [24]  605 	lcall	_wing
                                    606 ;	music.c:82: wing(494,111); //一
      000248 75 08 6F         [24]  607 	mov	_wing_PARM_2,#0x6f
      00024B 75 09 00         [24]  608 	mov	(_wing_PARM_2 + 1),#0x00
      00024E 90 01 EE         [24]  609 	mov	dptr,#0x01ee
      000251 12 00 62         [24]  610 	lcall	_wing
                                    611 ;	music.c:83: wing(440,125); //曲
      000254 75 08 7D         [24]  612 	mov	_wing_PARM_2,#0x7d
      000257 75 09 00         [24]  613 	mov	(_wing_PARM_2 + 1),#0x00
      00025A 90 01 B8         [24]  614 	mov	dptr,#0x01b8
      00025D 12 00 62         [24]  615 	lcall	_wing
                                    616 ;	music.c:84: wing(494,111); //琵
      000260 75 08 6F         [24]  617 	mov	_wing_PARM_2,#0x6f
      000263 75 09 00         [24]  618 	mov	(_wing_PARM_2 + 1),#0x00
      000266 90 01 EE         [24]  619 	mov	dptr,#0x01ee
      000269 12 00 62         [24]  620 	lcall	_wing
                                    621 ;	music.c:85: wing(660,167); //琶
      00026C 75 08 A7         [24]  622 	mov	_wing_PARM_2,#0xa7
      00026F 75 09 00         [24]  623 	mov	(_wing_PARM_2 + 1),#0x00
      000272 90 02 94         [24]  624 	mov	dptr,#0x0294
      000275 12 00 62         [24]  625 	lcall	_wing
                                    626 ;	music.c:87: wing(330,167); //我
      000278 75 08 A7         [24]  627 	mov	_wing_PARM_2,#0xa7
      00027B 75 09 00         [24]  628 	mov	(_wing_PARM_2 + 1),#0x00
      00027E 90 01 4A         [24]  629 	mov	dptr,#0x014a
      000281 12 00 62         [24]  630 	lcall	_wing
                                    631 ;	music.c:88: wing(294,187); //欲
      000284 75 08 BB         [24]  632 	mov	_wing_PARM_2,#0xbb
      000287 75 09 00         [24]  633 	mov	(_wing_PARM_2 + 1),#0x00
      00028A 90 01 26         [24]  634 	mov	dptr,#0x0126
      00028D 12 00 62         [24]  635 	lcall	_wing
                                    636 ;	music.c:89: wing(262,210); //提
      000290 75 08 D2         [24]  637 	mov	_wing_PARM_2,#0xd2
      000293 75 09 00         [24]  638 	mov	(_wing_PARM_2 + 1),#0x00
      000296 90 01 06         [24]  639 	mov	dptr,#0x0106
      000299 12 00 62         [24]  640 	lcall	_wing
                                    641 ;	music.c:90: wing(220,250); //笔
      00029C 75 08 FA         [24]  642 	mov	_wing_PARM_2,#0xfa
      00029F 75 09 00         [24]  643 	mov	(_wing_PARM_2 + 1),#0x00
      0002A2 90 00 DC         [24]  644 	mov	dptr,#0x00dc
      0002A5 12 00 62         [24]  645 	lcall	_wing
                                    646 ;	music.c:91: wing(262,210); //为
      0002A8 75 08 D2         [24]  647 	mov	_wing_PARM_2,#0xd2
      0002AB 75 09 00         [24]  648 	mov	(_wing_PARM_2 + 1),#0x00
      0002AE 90 01 06         [24]  649 	mov	dptr,#0x0106
      0002B1 12 00 62         [24]  650 	lcall	_wing
                                    651 ;	music.c:92: wing(294,187); //汝
      0002B4 75 08 BB         [24]  652 	mov	_wing_PARM_2,#0xbb
      0002B7 75 09 00         [24]  653 	mov	(_wing_PARM_2 + 1),#0x00
      0002BA 90 01 26         [24]  654 	mov	dptr,#0x0126
      0002BD 12 00 62         [24]  655 	lcall	_wing
                                    656 ;	music.c:93: wing(330,167); //一
      0002C0 75 08 A7         [24]  657 	mov	_wing_PARM_2,#0xa7
      0002C3 75 09 00         [24]  658 	mov	(_wing_PARM_2 + 1),#0x00
      0002C6 90 01 4A         [24]  659 	mov	dptr,#0x014a
      0002C9 12 00 62         [24]  660 	lcall	_wing
                                    661 ;	music.c:94: wing(392,140); //幅
      0002CC 75 08 8C         [24]  662 	mov	_wing_PARM_2,#0x8c
      0002CF 75 09 00         [24]  663 	mov	(_wing_PARM_2 + 1),#0x00
      0002D2 90 01 88         [24]  664 	mov	dptr,#0x0188
      0002D5 12 00 62         [24]  665 	lcall	_wing
                                    666 ;	music.c:95: wing(784,140); //画
      0002D8 75 08 8C         [24]  667 	mov	_wing_PARM_2,#0x8c
      0002DB 75 09 00         [24]  668 	mov	(_wing_PARM_2 + 1),#0x00
      0002DE 90 03 10         [24]  669 	mov	dptr,#0x0310
      0002E1 12 00 62         [24]  670 	lcall	_wing
                                    671 ;	music.c:97: wing(294,187); //佳
      0002E4 75 08 BB         [24]  672 	mov	_wing_PARM_2,#0xbb
      0002E7 75 09 00         [24]  673 	mov	(_wing_PARM_2 + 1),#0x00
      0002EA 90 01 26         [24]  674 	mov	dptr,#0x0126
      0002ED 12 00 62         [24]  675 	lcall	_wing
                                    676 ;	music.c:98: wing(294,187); //人
      0002F0 75 08 BB         [24]  677 	mov	_wing_PARM_2,#0xbb
      0002F3 75 09 00         [24]  678 	mov	(_wing_PARM_2 + 1),#0x00
      0002F6 90 01 26         [24]  679 	mov	dptr,#0x0126
      0002F9 12 00 62         [24]  680 	lcall	_wing
                                    681 ;	music.c:99: wing(262,210); //请
      0002FC 75 08 D2         [24]  682 	mov	_wing_PARM_2,#0xd2
      0002FF 75 09 00         [24]  683 	mov	(_wing_PARM_2 + 1),#0x00
      000302 90 01 06         [24]  684 	mov	dptr,#0x0106
      000305 12 00 62         [24]  685 	lcall	_wing
                                    686 ;	music.c:100: wing(392,140); //笑
      000308 75 08 8C         [24]  687 	mov	_wing_PARM_2,#0x8c
      00030B 75 09 00         [24]  688 	mov	(_wing_PARM_2 + 1),#0x00
      00030E 90 01 88         [24]  689 	mov	dptr,#0x0188
      000311 12 00 62         [24]  690 	lcall	_wing
                                    691 ;	music.c:101: wing(588,187); //纳
      000314 75 08 BB         [24]  692 	mov	_wing_PARM_2,#0xbb
      000317 75 09 00         [24]  693 	mov	(_wing_PARM_2 + 1),#0x00
      00031A 90 02 4C         [24]  694 	mov	dptr,#0x024c
                                    695 ;	music.c:154: }
      00031D 02 00 62         [24]  696 	ljmp	_wing
                                    697 	.area CSEG    (CODE)
                                    698 	.area CONST   (CODE)
                                    699 	.area XINIT   (CODE)
                                    700 	.area CABS    (ABS,CODE)
