:03000000020006F5
:03005F0002000399
:0300030002008C6C
:10006200AE82AF837C007D00C3EC9EED9F501AB23E
:1000720095AA08AB098A008B011ABAFF011BE8494D
:1000820070F30CBC00E20D80DF2275087D7509005B
:100092009001B812006275088C75090090018812EF
:1000A200006275088C75090090018812006275085B
:1000B200A775090090014A12006275088C75090043
:1000C2009003101200627508A775090090014A1288
:1000D200006275088C75090090018812006275082B
:1000E2007D7509009001B812006275086F750900EC
:1000F2009001EE12006275087D7509009001B81238
:10010200006275086F7509009001EE1200627508B1
:10011200A77509009002941200627508A77509007C
:1001220090014A1200627508BB75090090012612FF
:1001320000627508D2750900900106120062750806
:10014200FA7509009000DC1200627508D275090088
:100152009001061200627508BB75090090009312A7
:1001620000627508D2750900900088120062750855
:10017200A775090090014A12006275088C75090082
:1001820090018812006275088C75090090031012A4
:1001920000627508BB75090090012612006275089D
:1001A200BB7509009001261200627508D27509001C
:1001B2009001061200627508FA7509009000DC12BF
:1001C20000627508BB75090090024C120062750846
:1001D200D27509009001061200627508BB7509000C
:1001E2009001261200627508A775090090014A1253
:1001F20000627508BB75090090012612006275083D
:10020200A775090090014A12006275088C750900F1
:1002120090018812006275088C7509009003101213
:1002220000627508A775090090014A1200627508FC
:100232008C75090090018812006275087D750900AD
:100242009001B812006275086F7509009001EE12F4
:10025200006275087D7509009001B8120062750888
:100262006F7509009001EE1200627508A77509000A
:100272009002941200627508A775090090014A1253
:1002820000627508BB7509009001261200627508AC
:10029200D27509009001061200627508FA7509000C
:1002A2009000DC1200627508D275090090010612F6
:1002B20000627508BB75090090012612006275087C
:1002C200A775090090014A12006275088C75090031
:1002D20090018812006275088C7509009003101253
:1002E20000627508BB75090090012612006275084C
:1002F200BB7509009001261200627508D2750900CB
:1003020090010612006275088C750900900188122E
:0E03120000627508BB75090090024C02006283
:06003500E478FFF6D8FD9F
:100013007900E94400601B7A00900324780175A0FD
:1000230000E493F2A308B8000205A0D9F4DAF2754C
:02003300A0FF2C
:10003B007800E84400600A790175A000E4F309D860
:10004B00FC7800E84400600C7900900001E4F0A318
:04005B00D8FCD9FAFA
:0D000600758109120320E5826003020003EA
:0403200075820022C0
:00000001FF
